{
  "contractName": "CoffeePurchase",
  "abi": [
    {
      "inputs": [],
      "stateMutability": "nonpayable",
      "type": "constructor"
    },
    {
      "anonymous": false,
      "inputs": [
        {
          "indexed": true,
          "internalType": "address",
          "name": "buyer",
          "type": "address"
        },
        {
          "indexed": false,
          "internalType": "uint256",
          "name": "amount",
          "type": "uint256"
        },
        {
          "indexed": false,
          "internalType": "string",
          "name": "message",
          "type": "string"
        }
      ],
      "name": "PurchaseMade",
      "type": "event"
    },
    {
      "inputs": [],
      "name": "owner",
      "outputs": [
        {
          "internalType": "address",
          "name": "",
          "type": "address"
        }
      ],
      "stateMutability": "view",
      "type": "function",
      "constant": true
    },
    {
      "inputs": [
        {
          "internalType": "uint256",
          "name": "",
          "type": "uint256"
        }
      ],
      "name": "purchases",
      "outputs": [
        {
          "internalType": "string",
          "name": "from",
          "type": "string"
        },
        {
          "internalType": "string",
          "name": "to",
          "type": "string"
        },
        {
          "internalType": "address",
          "name": "addFrom",
          "type": "address"
        },
        {
          "internalType": "address",
          "name": "addTo",
          "type": "address"
        }
      ],
      "stateMutability": "view",
      "type": "function",
      "constant": true
    },
    {
      "inputs": [
        {
          "internalType": "string",
          "name": "_from",
          "type": "string"
        },
        {
          "internalType": "string",
          "name": "_to",
          "type": "string"
        },
        {
          "internalType": "address",
          "name": "_addTo",
          "type": "address"
        },
        {
          "internalType": "string",
          "name": "message",
          "type": "string"
        }
      ],
      "name": "purchaseCoffee",
      "outputs": [],
      "stateMutability": "payable",
      "type": "function",
      "payable": true
    },
    {
      "inputs": [],
      "name": "showDetails",
      "outputs": [
        {
          "components": [
            {
              "internalType": "string",
              "name": "from",
              "type": "string"
            },
            {
              "internalType": "string",
              "name": "to",
              "type": "string"
            },
            {
              "internalType": "address",
              "name": "addFrom",
              "type": "address"
            },
            {
              "internalType": "address",
              "name": "addTo",
              "type": "address"
            }
          ],
          "internalType": "struct CoffeePurchase.purchase[]",
          "name": "",
          "type": "tuple[]"
        }
      ],
      "stateMutability": "view",
      "type": "function",
      "constant": true
    },
    {
      "inputs": [],
      "name": "getMessage",
      "outputs": [
        {
          "internalType": "string",
          "name": "",
          "type": "string"
        }
      ],
      "stateMutability": "view",
      "type": "function",
      "constant": true
    },
    {
      "inputs": [],
      "name": "withdrawFunds",
      "outputs": [],
      "stateMutability": "nonpayable",
      "type": "function"
    }
  ],
  "bytecode": "0x608060405234801561001057600080fd5b50336000806101000a81548173ffffffffffffffffffffffffffffffffffffffff021916908373ffffffffffffffffffffffffffffffffffffffff160217905550611415806100606000396000f3fe6080604052600436106100555760003560e01c806324600fc31461005a5780638392fe31146100715780638da5cb5b146100b1578063ad903d5b146100dc578063c67f815614610107578063ce6d41de14610123575b600080fd5b34801561006657600080fd5b5061006f61014e565b005b34801561007d57600080fd5b50610098600480360381019061009391906109e5565b610245565b6040516100a89493929190610ae3565b60405180910390f35b3480156100bd57600080fd5b506100c66103d5565b6040516100d39190610b36565b60405180910390f35b3480156100e857600080fd5b506100f16103f9565b6040516100fe9190610cd6565b60405180910390f35b610121600480360381019061011c9190610eb9565b610628565b005b34801561012f57600080fd5b506101386108cc565b6040516101459190610f7c565b60405180910390f35b60008054906101000a900473ffffffffffffffffffffffffffffffffffffffff1673ffffffffffffffffffffffffffffffffffffffff163373ffffffffffffffffffffffffffffffffffffffff16146101dc576040517f08c379a00000000000000000000000000000000000000000000000000000000081526004016101d390611010565b60405180910390fd5b60008054906101000a900473ffffffffffffffffffffffffffffffffffffffff1673ffffffffffffffffffffffffffffffffffffffff166108fc479081150290604051600060405180830381858888f19350505050158015610242573d6000803e3d6000fd5b50565b6002818154811061025557600080fd5b90600052602060002090600402016000915090508060000180546102789061105f565b80601f01602080910402602001604051908101604052809291908181526020018280546102a49061105f565b80156102f15780601f106102c6576101008083540402835291602001916102f1565b820191906000526020600020905b8154815290600101906020018083116102d457829003601f168201915b5050505050908060010180546103069061105f565b80601f01602080910402602001604051908101604052809291908181526020018280546103329061105f565b801561037f5780601f106103545761010080835404028352916020019161037f565b820191906000526020600020905b81548152906001019060200180831161036257829003601f168201915b5050505050908060020160009054906101000a900473ffffffffffffffffffffffffffffffffffffffff16908060030160009054906101000a900473ffffffffffffffffffffffffffffffffffffffff16905084565b60008054906101000a900473ffffffffffffffffffffffffffffffffffffffff1681565b60606002805480602002602001604051908101604052809291908181526020016000905b8282101561061f57838290600052602060002090600402016040518060800160405290816000820180546104509061105f565b80601f016020809104026020016040519081016040528092919081815260200182805461047c9061105f565b80156104c95780601f1061049e576101008083540402835291602001916104c9565b820191906000526020600020905b8154815290600101906020018083116104ac57829003601f168201915b505050505081526020016001820180546104e29061105f565b80601f016020809104026020016040519081016040528092919081815260200182805461050e9061105f565b801561055b5780601f106105305761010080835404028352916020019161055b565b820191906000526020600020905b81548152906001019060200180831161053e57829003601f168201915b505050505081526020016002820160009054906101000a900473ffffffffffffffffffffffffffffffffffffffff1673ffffffffffffffffffffffffffffffffffffffff1673ffffffffffffffffffffffffffffffffffffffff1681526020016003820160009054906101000a900473ffffffffffffffffffffffffffffffffffffffff1673ffffffffffffffffffffffffffffffffffffffff1673ffffffffffffffffffffffffffffffffffffffff16815250508152602001906001019061041d565b50505050905090565b6000341161066b576040517f08c379a000000000000000000000000000000000000000000000000000000000815260040161066290611102565b60405180910390fd5b80600160008473ffffffffffffffffffffffffffffffffffffffff1673ffffffffffffffffffffffffffffffffffffffff16815260200190815260200160002090816106b791906112ce565b506002604051806080016040528088888080601f016020809104026020016040519081016040528093929190818152602001838380828437600081840152601f19601f82011690508083019250505050505050815260200186868080601f016020809104026020016040519081016040528093929190818152602001838380828437600081840152601f19601f8201169050808301925050505050505081526020013373ffffffffffffffffffffffffffffffffffffffff1681526020018473ffffffffffffffffffffffffffffffffffffffff16815250908060018154018082558091505060019003906000526020600020906004020160009091909190915060008201518160000190816107cd91906112ce565b5060208201518160010190816107e391906112ce565b5060408201518160020160006101000a81548173ffffffffffffffffffffffffffffffffffffffff021916908373ffffffffffffffffffffffffffffffffffffffff16021790555060608201518160030160006101000a81548173ffffffffffffffffffffffffffffffffffffffff021916908373ffffffffffffffffffffffffffffffffffffffff16021790555050503373ffffffffffffffffffffffffffffffffffffffff167fdac79fadfc175f0d29dd1e1792b3ff3aa47ea130e2c28da5bd601cf30d9e6c3b34836040516108bc9291906113af565b60405180910390a2505050505050565b6060600160003373ffffffffffffffffffffffffffffffffffffffff1673ffffffffffffffffffffffffffffffffffffffff16815260200190815260200160002080546109189061105f565b80601f01602080910402602001604051908101604052809291908181526020018280546109449061105f565b80156109915780601f1061096657610100808354040283529160200191610991565b820191906000526020600020905b81548152906001019060200180831161097457829003601f168201915b5050505050905090565b6000604051905090565b600080fd5b600080fd5b6000819050919050565b6109c2816109af565b81146109cd57600080fd5b50565b6000813590506109df816109b9565b92915050565b6000602082840312156109fb576109fa6109a5565b5b6000610a09848285016109d0565b91505092915050565b600081519050919050565b600082825260208201905092915050565b60005b83811015610a4c578082015181840152602081019050610a31565b60008484015250505050565b6000601f19601f8301169050919050565b6000610a7482610a12565b610a7e8185610a1d565b9350610a8e818560208601610a2e565b610a9781610a58565b840191505092915050565b600073ffffffffffffffffffffffffffffffffffffffff82169050919050565b6000610acd82610aa2565b9050919050565b610add81610ac2565b82525050565b60006080820190508181036000830152610afd8187610a69565b90508181036020830152610b118186610a69565b9050610b206040830185610ad4565b610b2d6060830184610ad4565b95945050505050565b6000602082019050610b4b6000830184610ad4565b92915050565b600081519050919050565b600082825260208201905092915050565b6000819050602082019050919050565b600082825260208201905092915050565b6000610b9982610a12565b610ba38185610b7d565b9350610bb3818560208601610a2e565b610bbc81610a58565b840191505092915050565b610bd081610ac2565b82525050565b60006080830160008301518482036000860152610bf38282610b8e565b91505060208301518482036020860152610c0d8282610b8e565b9150506040830151610c226040860182610bc7565b506060830151610c356060860182610bc7565b508091505092915050565b6000610c4c8383610bd6565b905092915050565b6000602082019050919050565b6000610c6c82610b51565b610c768185610b5c565b935083602082028501610c8885610b6d565b8060005b85811015610cc45784840389528151610ca58582610c40565b9450610cb083610c54565b925060208a01995050600181019050610c8c565b50829750879550505050505092915050565b60006020820190508181036000830152610cf08184610c61565b905092915050565b600080fd5b600080fd5b600080fd5b60008083601f840112610d1d57610d1c610cf8565b5b8235905067ffffffffffffffff811115610d3a57610d39610cfd565b5b602083019150836001820283011115610d5657610d55610d02565b5b9250929050565b610d6681610ac2565b8114610d7157600080fd5b50565b600081359050610d8381610d5d565b92915050565b600080fd5b7f4e487b7100000000000000000000000000000000000000000000000000000000600052604160045260246000fd5b610dc682610a58565b810181811067ffffffffffffffff82111715610de557610de4610d8e565b5b80604052505050565b6000610df861099b565b9050610e048282610dbd565b919050565b600067ffffffffffffffff821115610e2457610e23610d8e565b5b610e2d82610a58565b9050602081019050919050565b82818337600083830152505050565b6000610e5c610e5784610e09565b610dee565b905082815260208101848484011115610e7857610e77610d89565b5b610e83848285610e3a565b509392505050565b600082601f830112610ea057610e9f610cf8565b5b8135610eb0848260208601610e49565b91505092915050565b60008060008060008060808789031215610ed657610ed56109a5565b5b600087013567ffffffffffffffff811115610ef457610ef36109aa565b5b610f0089828a01610d07565b9650965050602087013567ffffffffffffffff811115610f2357610f226109aa565b5b610f2f89828a01610d07565b94509450506040610f4289828a01610d74565b925050606087013567ffffffffffffffff811115610f6357610f626109aa565b5b610f6f89828a01610e8b565b9150509295509295509295565b60006020820190508181036000830152610f968184610a69565b905092915050565b7f4f6e6c7920746865206f776e65722063616e206163636573732074686973206660008201527f756e6374696f6e00000000000000000000000000000000000000000000000000602082015250565b6000610ffa602783610a1d565b915061100582610f9e565b604082019050919050565b6000602082019050818103600083015261102981610fed565b9050919050565b7f4e487b7100000000000000000000000000000000000000000000000000000000600052602260045260246000fd5b6000600282049050600182168061107757607f821691505b60208210810361108a57611089611030565b5b50919050565b7f436f66666565207072696365206d75737420626520677265617465722074686160008201527f6e20302077656900000000000000000000000000000000000000000000000000602082015250565b60006110ec602783610a1d565b91506110f782611090565b604082019050919050565b6000602082019050818103600083015261111b816110df565b9050919050565b60008190508160005260206000209050919050565b60006020601f8301049050919050565b600082821b905092915050565b6000600883026111847fffffffffffffffffffffffffffffffffffffffffffffffffffffffffffffffff82611147565b61118e8683611147565b95508019841693508086168417925050509392505050565b6000819050919050565b60006111cb6111c66111c1846109af565b6111a6565b6109af565b9050919050565b6000819050919050565b6111e5836111b0565b6111f96111f1826111d2565b848454611154565b825550505050565b600090565b61120e611201565b6112198184846111dc565b505050565b5b8181101561123d57611232600082611206565b60018101905061121f565b5050565b601f8211156112825761125381611122565b61125c84611137565b8101602085101561126b578190505b61127f61127785611137565b83018261121e565b50505b505050565b600082821c905092915050565b60006112a560001984600802611287565b1980831691505092915050565b60006112be8383611294565b9150826002028217905092915050565b6112d782610a12565b67ffffffffffffffff8111156112f0576112ef610d8e565b5b6112fa825461105f565b611305828285611241565b600060209050601f8311600181146113385760008415611326578287015190505b61133085826112b2565b865550611398565b601f19841661134686611122565b60005b8281101561136e57848901518255600182019150602085019450602081019050611349565b8683101561138b5784890151611387601f891682611294565b8355505b6001600288020188555050505b505050505050565b6113a9816109af565b82525050565b60006040820190506113c460008301856113a0565b81810360208301526113d68184610a69565b9050939250505056fea26469706673582212202ec04104b5b29847172b2177d8307b312dac1bb84ee993ea1448008fd587a4ac64736f6c63430008130033",
  "immutableReferences": {},
  "source": "// SPDX-License-Identifier: MIT\npragma solidity >= 0.8.0;\n\ncontract CoffeePurchase {\n    address public owner;\n    mapping(address => string) private messages;\n    struct purchase {\n        string from;\n        string to;\n        address addFrom;\n        address addTo;\n    }\n    purchase[] public purchases;\n    event PurchaseMade(address indexed buyer, uint256 amount, string message);\n\n    constructor() {\n        owner = msg.sender;\n    }\n\n    modifier onlyOwner() {\n        require(msg.sender == owner, \"Only the owner can access this function\");\n        _;\n    }\n\n    function purchaseCoffee(string calldata _from,string calldata _to,address _addTo,string memory message) public payable {\n        require(msg.value > 0, \"Coffee price must be greater than 0 wei\");\n        messages[_addTo] = message;\n        purchases.push(purchase(_from,_to,msg.sender,_addTo));\n        emit PurchaseMade(msg.sender, msg.value, message);\n    }\n    function showDetails() external view returns(purchase[] memory){\n        return purchases;\n    }\n    function getMessage() public view returns (string memory) {\n        return messages[msg.sender];\n    }\n\n    function withdrawFunds() public onlyOwner {\n        payable(owner).transfer(address(this).balance);\n    }\n}\n",
  "sourcePath": "/Users/kaustubhsharma/Desktop/HiddenBrew/ganache/contracts/coffee.sol",
  "compiler": {
    "name": "solc",
    "version": "0.8.19+commit.7dd6d404.Emscripten.clang"
  },
  "schemaVersion": "3.4.15",
  "updatedAt": "2023-08-30T09:15:03.770Z",
  "networkType": "ethereum",
  "devdoc": {
    "kind": "dev",
    "methods": {},
    "version": 1
  },
  "userdoc": {
    "kind": "user",
    "methods": {},
    "version": 1
  }
}